:1000000071C000008EC000008CC000008AC00000DB
:1000100088C0000086C0000084C0000082C00000CC
:1000200080C000007EC000007CC000007AC00000DC
:1000300078C0000076C0000074C0000072C00000EC
:1000400070C000006EC000006CC000006AC00000FC
:10005000E5C0000066C0000064C0000062C000008F
:1000600060C0000055C200005CC000005AC0000023
:1000700058C000006AC0000054C0000052C0000018
:1000800050C000004EC000004CC000004AC000003C
:1000900048C0000046C0000044C0000042C000004C
:1000A00040C000003EC000003CC000003AC000005C
:1000B00038C0000036C0000034C0000032C000006C
:1000C00030C000002EC000002CC000002AC000007C
:1000D00028C0000026C0000024C0000022C000008C
:1000E00020C0000011241FBECFEFD1E2DEBFCDBF84
:1000F00000E00CBF12E0A0E0B2E0E2EBF8E000E0CC
:100100000BBF02C007900D92AC30B107D9F72BE0BE
:10011000ACE0B2E001C01D92A838B207E1F79DD073
:10012000C6C36ECFECE7F0E0808180628083EAE7AF
:10013000F0E08081846A8083808188648083EBE73B
:10014000F0E080818660808308951F920F920FB641
:100150000F9211240BB60F922F933F934F935F93FF
:100160006F938F939F93EF93FF93809108029091E9
:1001700009020596209100023091010228173907E3
:10018000F0F44091150241111AC0A9014F5F5F4F71
:10019000509301024093000260917900F901EA5DF9
:1001A000FD4F60838417950749F581E08093150220
:1001B00085E090E090930102809300021FC0281711
:1001C0003907E0F4409115024130C1F4A9014F5FB5
:1001D0005F4F509301024093000260917900F90152
:1001E000E852F94F60838417950741F41092150285
:1001F00085E090E09093010280930002FF91EF91DF
:100200009F918F916F915F914F913F912F910F909F
:100210000BBE0F900FBE0F901F9018951F920F925C
:100220000FB60F9211248F939F93809104029091A7
:100230000502909385008093840080911202909132
:100240001302019690931302809312029F918F9153
:100250000F900FBE0F901F90189599D263DF60E04A
:1002600072EC81E090E0A0D2CFD260E080E08ED14D
:1002700084B1806884B97894E6E2F2E025E52083D1
:100280009AEA918382E08483E8EDF6E0208391830B
:10029000848380910002909101020F9798F58091DC
:1002A0000602909107029093090280930802209120
:1002B00002023091030230930502209304029C0154
:1002C000295F3F4F30931A0220931902E6E2F2E0D1
:1002D00032832383AC014B5F5F4FFA01EA5DFD4F30
:1002E00010820696FC01EA5DFD4F1082E8EDF6E013
:1002F00032832383FA01E852F94F1082FC01E8525D
:10030000F94F108280911402813009F094C010924C
:10031000140280911F02813021F0823009F442C022
:100320008AC0EBE1F2E08581809318029681909378
:10033000D606811115C08091D706811106C0943070
:1003400008F079C09093100276C0813019F4909330
:100350000F0271C0823009F06EC090930E026BC024
:10036000813059F48091D706823020F48F5F8093DA
:10037000D70661C01092D7065EC0823039F49091E2
:10038000110281E089278093110255C0833009F062
:1003900052C010920E0210920F0210921002109290
:1003A000D70649C0EBE1F2E0878190E0982F8827DB
:1003B0002085822B9093070280930602C091080249
:1003C000D09109028E01095F1F4F10931A0200930A
:1003D0001902258130E0322F22278681282B309385
:1003E0000B0220930A0240E050E060E970ED83E0E8
:1003F00090E010D23195219531093093030220937A
:100400000202E6E2F2E012830383CE010596FC01CC
:10041000EA5DFD4F10822696FE01EA5DFD4F1082D7
:10042000E8EDF6E012830383FC01E852F94F1082F5
:10043000C852D94F188280911502813071F4809191
:10044000160281110AC06091190270911A0286E2A7
:1004500092E0BFD181E08093160280911502811154
:100460000DC080911602813049F46091190270919B
:100470001A0288ED96E0ADD11092160220910A0280
:1004800030910B02ADECBCECE1D196958795969539
:10049000879596958795209112023091130228171F
:1004A000390708F4F6CE1092130210921202A0D06F
:1004B0006B017C014C01AA24BB24472E582E692EC7
:1004C000772485E57FD18AEA7DD180E07BD18BE0FE
:1004D00079D181E077D18091D70674D1842D72D102
:1004E0008C2D70D1882D6ED180E06CD180E06AD1E6
:1004F0008091110287958827879585B920911002F0
:1005000040910E0260910F0280911102FFD0C1CE86
:100510001F920F920FB60F9211240BB60F922F93CA
:100520003F938F939F93EF93FF9380910C02909151
:100530000D022091C600FC01E55EFD4F208301966F
:1005400090930D0280930C0220911B02253589F4B3
:1005500020911C022A3A69F420911E0230E0821791
:10056000930739F481E08093140210920D021092E7
:100570000C02FF91EF919F918F913F912F910F90DE
:100580000BBE0F900FBE0F901F901895962F24B1A1
:10059000276024B925B1216025B925B1286025B986
:1005A0001CBC2CB5682F70E0AB01440F551F440FE5
:1005B000551F440F551F692F70E0660F771F660F98
:1005C000771F642B622B63656CBD1EBC08951EBC37
:1005D0000DB407FEFDCF8EB508958EBD0DB407FE98
:1005E000FDCF8EB508958EBD0DB407FEFDCF0895E5
:1005F0000F931F93CF93DF93CDB7DEB72A970FB634
:10060000F894DEBF0FBECDBF00E010E03BC0043069
:1006100011054CF485B18E7F85B981EAE4DF85B19F
:10062000816085B92DC00430110549F485B18E7FF4
:1006300085B98AEAD2DF85B1816085B921C00530EC
:10064000110551F485B18E7F85B98AEAC6DF8B83A7
:1006500085B1816085B914C0C8010597099780F4F8
:1006600085B18E7F85B9B3DFF801359721E030E0A1
:100670002C0F3D1FE20FF31F808385B1816085B988
:100680000F5F1F4F0E3011050CF4C1CF9B813C81D1
:100690006D814E812F81892F83278627842782278A
:1006A000588585131AC09A3AE9F43F3F01F5862F21
:1006B00090E0A0E0B0E0DC019927882750E0742F9B
:1006C0006627AB01770F660B770B842B952BA62B38
:1006D000B72BBC01CD01622B0EC060E070E080E062
:1006E00097E309C060E070E080E097E304C060E059
:1006F00070E080E097E32A960FB6F894DEBF0FBE55
:10070000CDBFDF91CF911F910F9108950F931F934C
:10071000CF93DF93CDB7DEB728970FB6F894DEBF3F
:100720000FBECDBF90E8899FF0011124E22B9CED14
:1007300099839AEC9A838B836C834D83EE83822713
:100740008427682786E168276F83188600E010E019
:1007500010C085B18E7F85B9E1E0F0E0EC0FFD1FA0
:10076000E00FF11F80813FDF85B1816085B90F5FA8
:100770001F4F083011056CF328960FB6F894DEBFB2
:100780000FBECDBFDF91CF911F910F9108951092B1
:100790008000E1E8F0E0808183608083EFE6F0E0B4
:1007A000808181608083089582E08093C000E1ECC5
:1007B000F0E0808188618083E2ECF0E080818660F7
:1007C000808308959091C00095FFFCCF8093C60070
:1007D0000895EF92FF920F931F93CF93DF937C01C5
:1007E0008B01C0E0D0E006C0F701EC0FFD1F808157
:1007F000E9DF2196C017D107BCF3DF91CF911F919C
:100800000F91FF90EF900895E1ECF0E08081806817
:1008100080830895052E97FB16F400940FD057FDA2
:1008200005D023D007FC02D046F408C0509540956F
:10083000309521953F4F4F4F5F4F0895909580958C
:10084000709561957F4F8F4F9F4F0895A29FB00184
:10085000B39FC001A39F700D811D1124911DB29FF4
:10086000700D811D1124911D0895A1E21A2EAA1B5D
:10087000BB1BFD010DC0AA1FBB1FEE1FFF1FA21750
:10088000B307E407F50720F0A21BB30BE40BF50B4D
:10089000661F771F881F991F1A9469F760957095D6
:1008A000809590959B01AC01BD01CF010895F8940E
:0208B000FFCF78
:0C08B200050024F424F432003200E803B6
:00000001FF
