:1000000071C000008EC000008CC000008AC00000DB
:1000100088C0000086C0000084C0000082C00000CC
:1000200080C000007EC000007CC000007AC00000DC
:1000300078C0000076C0000074C0000072C00000EC
:1000400070C000006EC000006CC000006AC00000FC
:10005000E5C0000066C0000064C0000062C000008F
:1000600060C0000014C200005CC000005AC0000064
:1000700058C000006AC0000054C0000052C0000018
:1000800050C000004EC000004CC000004AC000003C
:1000900048C0000046C0000044C0000042C000004C
:1000A00040C000003EC000003CC000003AC000005C
:1000B00038C0000036C0000034C0000032C000006C
:1000C00030C000002EC000002CC000002AC000007C
:1000D00028C0000026C0000024C0000022C000008C
:1000E00020C0000011241FBECFEFD1E2DEBFCDBF84
:1000F00000E00CBF12E0A0E0B2E0E0E4F8E000E0D5
:100100000BBF02C007900D92A830B107D9F72AE0C3
:10011000A8E0B2E001C01D92A130B207E1F79DD086
:100120008DC36ECFECE7F0E0808180668083EAE7E4
:10013000F0E08081846A8083808188648083EBE73B
:10014000F0E080818660808308951F920F920FB641
:100150000F9211240BB60F922F933F934F935F93FF
:100160006F938F939F93EF93FF93809104029091ED
:10017000050205962091000230910102A90128177D
:100180003907E8F460911102611119C04F5F5F4FA8
:10019000509301024093000260917900F901EF5DF4
:1001A000FD4F60838417950749F581E08093110224
:1001B00085E090E090930102809300021FC04817F1
:1001C0005907E0F4409111024130C1F4A9014F5F99
:1001D0005F4F509301024093000260917900F90152
:1001E000EE5EF94F60838417950741F41092110277
:1001F00085E090E09093010280930002FF91EF91DF
:100200009F918F916F915F914F913F912F910F909F
:100210000BBE0F900FBE0F901F9018951F920F925C
:100220000FB60F9211248F939F93809102029091A9
:100230000302909385008093840080910E02909138
:100240000F02019690930F0280930E029F918F915F
:100250000F900FBE0F901F9018955CD263DF80E166
:1002600090E065D298D260E080E053D184B180689C
:1002700084B97894E1E2F2E025E520839AEA91835B
:1002800082E08483E2E1F6E020839183848380919D
:100290001002813009F08EC01092100280911A0273
:1002A000813021F0823009F442C084C0E6E1F2E0FE
:1002B000858180931302968190931006811115C059
:1002C00080911106811106C0943008F073C090939C
:1002D0000C0270C0813019F490930B026BC0823015
:1002E00009F068C090930A0265C0813059F480918A
:1002F0001106823020F48F5F809311065BC010924C
:10030000110658C0823039F490910D0281E089279E
:1003100080930D024FC0833009F04CC010920A0246
:1003200010920B0210920C021092110643C0E6E1EB
:10033000F2E0C781D0E0DC2FCC278085C82BD0939A
:100340000502C09304028E01095F1F4F109315022E
:1003500000931402258130E0322F22278681282B3A
:10036000309307022093060240E050E060E970ED10
:1003700083E090E016D23195219531093093030244
:1003800020930202E1E2F2E012830383F801EF5DC1
:10039000FD4F10822696FE01EF5DFD4F1082E2E1D7
:1003A000F6E012830383F801EE5EF94F1082CE5E11
:1003B000D94F188280911102813071F4809112021C
:1003C00081110AC0609114027091150281E292E0DD
:1003D000C7D181E0809312028091110281110DC07A
:1003E00080911202813049F46091140270911502DB
:1003F00082E196E0B5D1109212022091060230916E
:100400000702ADECBCECE9D196958795969587955A
:100410009695879520910E0230910F022817390783
:1004200008F435CF10920F0210920E02A4D06B0187
:100430007C014C01AA24BB24472E582E692E772418
:1004400085E587D18AEA85D180E083D18BE081D1AF
:1004500081E07FD1809111067CD1842D7AD18C2DC1
:1004600078D1882D76D180E074D180E072D18091EE
:100470000D0287958827879585B920910C024091B8
:100480000A0260910B0280910D0203D100CF1F92EE
:100490000F920FB60F9211240BB60F922F933F932A
:1004A0008F939F93EF93FF9380910802909109029D
:1004B0002091C600FC01EA5EFD4F208320911602C8
:1004C000253589F4209117022A3A69F420911902FE
:1004D00030E08217930739F481E080931002109284
:1004E0000902109208028091080290910902019677
:1004F0009093090280930802FF91EF919F918F9151
:100500003F912F910F900BBE0F900FBE0F901F9039
:100510001895962F24B1276024B925B1216025B9FB
:1005200025B1286025B91CBC2CB5682F70E0AB0143
:10053000440F551F440F551F440F551F692F70E07E
:10054000660F771F660F771F642B622B63656CBD88
:100550001EBC08951EBC0DB407FEFDCF8EB50895D8
:100560008EBD0DB407FEFDCF8EB508958EBD0DB4C2
:1005700007FEFDCF08950F931F93CF93DF93CDB761
:10058000DEB72A970FB6F894DEBF0FBECDBF00E0EE
:1005900010E03BC0043011054CF485B18E7F85B965
:1005A00081EAE4DF85B1816085B92DC00430110591
:1005B00049F485B18E7F85B98AEAD2DF85B1816041
:1005C00085B921C00530110551F485B18E7F85B9FB
:1005D0008AEAC6DF8B8385B1816085B914C0C80102
:1005E0000597099780F485B18E7F85B9B3DFF8014F
:1005F000359721E030E02C0F3D1FE20FF31F808381
:1006000085B1816085B90F5F1F4F0E3011050CF465
:10061000C1CF9B813C816D814E812F81892F8327A2
:10062000862784278227588585131AC09A3AE9F4C9
:100630003F3F01F5862F90E0A0E0B0E0DC01992774
:10064000882750E0742F6627AB01770F660B770B76
:10065000842B952BA62BB72BBC01CD01622B0EC092
:1006600060E070E080E097E309C060E070E080E067
:1006700097E304C060E070E080E097E32A960FB64D
:10068000F894DEBF0FBECDBFDF91CF911F910F91C8
:1006900008950F931F93CF93DF93CDB7DEB72897BD
:1006A0000FB6F894DEBF0FBECDBF90E8899FF00172
:1006B0001124E22B9CED99839AEC9A838B836C83B3
:1006C0004D83EE8382278427682786E168276F831E
:1006D000188600E010E010C085B18E7F85B9E1E09A
:1006E000F0E0EC0FFD1FE00FF11F80813FDF85B1CF
:1006F000816085B90F5F1F4F083011056CF3289694
:100700000FB6F894DEBF0FBECDBFDF91CF911F9122
:100710000F91089510928000E1E8F0E080818360FD
:100720008083EFE6F0E0808181608083089522E09D
:100730002093C000E1ECF0E0208128612083E2EC0E
:10074000F0E02081266020839093C5008093C40050
:1007500008959091C00095FFFCCF8093C600089546
:10076000EF92FF920F931F93CF93DF937C018B0146
:10077000C0E0D0E006C0F701EC0FFD1F8081E9DF8B
:100780002196C017D107BCF3DF91CF911F910F9134
:10079000FF90EF900895E1ECF0E080818068808325
:1007A0000895052E97FB16F400940FD057FD05D041
:1007B00023D007FC02D046F408C0509540953095F0
:1007C00021953F4F4F4F5F4F0895909580957095BD
:1007D00061957F4F8F4F9F4F0895A29FB001B39FA8
:1007E000C001A39F700D811D1124911DB29F700D3A
:1007F000811D1124911D0895A1E21A2EAA1BBB1B75
:10080000FD010DC0AA1FBB1FEE1FFF1FA217B307DC
:10081000E407F50720F0A21BB30BE40BF50B661FF2
:10082000771F881F991F1A9469F7609570958095B6
:1008300090959B01AC01BD01CF010895F894FFCFC5
:08084000050024F43200E80376
:00000001FF
