:1000000071C000008EC000008CC000008AC00000DB
:1000100088C0000086C0000084C0000082C00000CC
:1000200080C000007EC000007CC000007AC00000DC
:1000300078C0000076C0000074C0000072C00000EC
:1000400070C0000080C000006CC000006AC00000EA
:1000500068C0000066C0000064C0000062C000000C
:1000600060C0000059C100005CC000005AC0000020
:1000700058C0000091C0000054C0000052C00000F1
:1000800050C000004EC000004CC000004AC000003C
:1000900048C0000046C0000044C0000042C000004C
:1000A00040C000003EC000003CC000003AC000005C
:1000B00038C0000036C0000034C0000032C000006C
:1000C00030C000002EC000002CC000002AC000007C
:1000D00028C0000026C0000024C0000022C000008C
:1000E00020C0000011241FBECFEFD1E2DEBFCDBF84
:1000F00000E00CBF12E0A0E0B2E0EEE1F4E000E0CE
:100100000BBF02C007900D92A430B107D9F721E1CF
:10011000A4E0B2E001C01D92A43DB207E1F794D083
:100120007CC16ECFDC0120E030E080E090E007C0D1
:10013000FD01E20FF31F408184272F5F3F4F2617F9
:100140003707B4F308951F920F920FB60F92112440
:100150008F939F93AF93BF93809108029091090270
:10016000A0910A02B0910B020196A11DB11D8093CE
:10017000080290930902A0930A02B0930B02109216
:10018000850010928400BF91AF919F918F910F9045
:100190000FBE0F901F9018951F920F920FB60F92DF
:1001A00011240BB60F922F933F934F935F938F932E
:1001B0009F93EF93FF932091060230910702211540
:1001C000310551F4E0910002F09101028091790033
:1001D000E251F64F808309C0E0910002F0910102E4
:1001E00080917900E952F24F8083809100029091D2
:1001F0000102019690930102809300024091020255
:10020000509103028417950780F081E028273093EE
:1002100007022093060281E090E09093050280930C
:1002200004021092010210920002FF91EF919F913F
:100230008F915F914F913F912F910F900BBE0F9037
:100240000FBE0F901F90189578944BD060E072EC21
:1002500081E090E08DD08091020290910302079698
:100260008093FD059093FE05EEE0F2E025E5208306
:100270002AEA21839283838382E0848300E010E072
:1002800027C00530110574F0AC0142505109241704
:10029000350740F4F801E251F64F2081F801ED5E98
:1002A000FD4F2083BC016B5F7F4FFB01E25FFD4F81
:1002B0001082EC0126968EE092E034DFC25FDD4FC3
:1002C0008883F801E25FFD4F80817ED00F5F1F4F72
:1002D000980180910202909103020817190788F291
:1002E000CDCF84B1806884B91092850010928400CB
:1002F000E1E8F0E080818360808380818860808392
:10030000EFE6F0E08081826080831092890088E1CE
:1003100080938800789408951F920F920FB60F92E1
:1003200011240BB60F928F939F93EF93FF938091BD
:100330000D02843168F4E82FF0E09091C600E0549B
:10034000FE4E90838F5F80930D0210920C0205C0C9
:1003500010920D0281E080930C02FF91EF919F912A
:100360008F910F900BBE0F900FBE0F901F9018959E
:10037000CF93DF93C1ECD0E0288128612883E0ECA3
:10038000F0E02081226020839B01AC0121503109E3
:100390004109510960E874E88EE190E01CD0BB2768
:1003A000A52F942F832F8093C5002093C400E2ECE7
:1003B000F0E08081866080838881806888831092E5
:1003C000C600DF91CF9108959091C00095FFFCCFBA
:1003D0008093C6000895A1E21A2EAA1BBB1BFD0143
:1003E0000DC0AA1FBB1FEE1FFF1FA217B307E40714
:1003F000F50720F0A21BB30BE40BF50B661F771F6C
:10040000881F991F1A9469F760957095809590954B
:0E0410009B01AC01BD01CF010895F894FFCF10
:04041E000500640071
:00000001FF
