S018000070726F6A656B7433303038322E4356312E7372656318
S113000071C000008EC000008CC000008AC00000D7
S113001088C0000086C0000084C0000082C00000C8
S113002080C000007EC000007CC000007AC00000D8
S113003078C0000076C0000074C0000072C00000E8
S113004070C0000078C000006CC000006AC00000EE
S113005068C0000066C0000064C0000062C0000008
S113006060C00000CDC100005CC000005AC00000A8
S113007058C0000056C0000054C0000052C0000028
S113008050C000004EC000004CC000004AC0000038
S113009048C0000046C0000044C0000042C0000048
S11300A040C000003EC000003CC000003AC0000058
S11300B038C0000036C0000034C0000032C0000068
S11300C030C000002EC000002CC000002AC0000078
S11300D028C0000026C0000024C0000022C0000088
S11300E020C0000011241FBECFEFD1E2DEBFCDBF80
S11300F000E00CBF12E0A0E0B2E0E6E0F5E000E0D2
S11301000BBF02C007900D92A030B107D9F722E0CF
S1130110A0E0B2E001C01D92A432B207E1F752D0D0
S1130120F0C16ECF609108027091090280910A02B9
S113013090910B0208951F920F920FB60F92112403
S11301408F939F93AF93BF9380910802909109027C
S1130150A0910A02B0910B020196A11DB11D8093DA
S1130160080290930902A0930A02B0930B02109222
S1130170850010928400BF91AF919F918F910F9051
S11301800FBE0F901F90189584B1806884B985B113
S1130190806485B91092850010928400E1E8F0E053
S11301A0808183608083808188608083EFE6F0E0D3
S11301B08081826080831092890088E18093880026
S11301C078940895E1DF60E080E05AD060E072EC5A
S11301D081E090E041D1A6DF009104021091050274
S11301E020910602309107026B017C01C01AD10AEA
S11301F0E20AF30A40E1C41647E2D406E104F1043A
S113020050F3609304027093050280930602909366
S1130210070280910C0290910D02029758F01092FF
S11302200D0210920C0280E090E001C001968A3029
S11302309105E4F31092030210920202109200025C
S1130240109201024FD0982F809103022091020254
S1130250922B9093020290910002792B70930002EA
S113026090910102692B6093010222D180910202D4
S11302701FD1809100021CD18091010219D1ABCF12
S1130280962F24B1276024B925B1216025B925B161
S1130290286025B91CBC2CB5682F70E0AB01440F55
S11302A0551F440F551F440F551F692F70E0660FEB
S11302B0771F660F771F642B622B62656CBD1EBCB3
S11302C008951EBC0DB407FEFDCF8EB508958EBDF6
S11302D00DB407FEFDCF8EB508958EBD0DB407FE97
S11302E0FDCF08950F931F93CF93DF93CDB7DEB760
S11302F02A970FB6F894DEBF0FBECDBF00E010E022
S11303003BC0043011054CF485B18E7F85B981EA78
S1130310E4DF85B1816085B92DC00430110549F44D
S113032085B18E7F85B98AEAD2DF85B1816085B9CE
S113033021C00530110551F485B18E7F85B98AEA53
S1130340C6DF8B8385B1816085B914C0C801059768
S1130350099780F485B18E7F85B9B3DFF8013597AD
S113036021E030E02C0F3D1FE20FF31F808385B1A5
S1130370816085B90F5F1F4F0E3011050CF4C1CF9A
S11303809B813C816D814E812F81892F8327862714
S113039084278227588585131AC09A3AE9F43F3F87
S11303A001F5862F90E0A0E0B0E0DC0199278827D2
S11303B050E0742F6627AB01770F660B770B842B05
S11303C0952BA62BB72BBC01CD01622B0EC060E090
S11303D070E080E097E309C060E070E080E097E3BC
S11303E004C060E070E080E097E32A960FB6F894CA
S11303F0DEBF0FBECDBFDF91CF911F910F91089546
S11304001F920F920FB60F9211240BB60F928F9377
S11304109F93EF93FF9380910F02843168F4E82F48
S1130420F0E09091C600E05FFD4F90838F5F809372
S11304300F0210920E0205C010920F0281E0809309
S11304400E02FF91EF919F918F910F900BBE0F9031
S11304500FBE0F901F901895CF93DF93C1ECD0E09F
S1130460288128612883E0ECF0E020812260208349
S11304709B01AC01215031094109510960E874E83C
S11304808EE190E01CD0BB27A52F942F832F80935F
S1130490C5002093C400E2ECF0E080818660808394
S11304A08881806888831092C600DF91CF91089577
S11304B09091C00095FFFCCF8093C6000895A1E2FF
S11304C01A2EAA1BBB1BFD010DC0AA1FBB1FEE1FCA
S11304D0FF1FA217B307E407F50720F0A21BB30B15
S11304E0E40BF50B661F771F881F991F1A9469F791
S11304F060957095809590959B01AC01BD01CF01ED
S10905000895F894FFCFFA
S9030000FC
