S018000070726F6A656B7433303038322E4356312E7372656318
S113000071C000008EC000008CC000008AC00000D7
S113001088C0000086C0000084C0000082C00000C8
S113002080C000007EC000007CC000007AC00000D8
S113003078C0000076C0000074C0000072C00000E8
S113004070C0000078C000006CC000006AC00000EE
S113005068C0000066C0000064C0000062C0000008
S113006060C000004BC100005CC000005AC000002A
S113007058C0000056C0000054C0000052C0000028
S113008050C000004EC000004CC000004AC0000038
S113009048C0000046C0000044C0000042C0000048
S11300A040C000003EC000003CC000003AC0000058
S11300B038C0000036C0000034C0000032C0000068
S11300C030C000002EC000002CC000002AC0000078
S11300D028C0000026C0000024C0000022C0000088
S11300E020C0000011241FBECFEFD1E2DEBFCDBF80
S11300F000E00CBF12E0A0E0B2E0E2E0F4E000E0D7
S11301000BBF02C007900D92A030B107D9F722E0CF
S1130110A0E0B2E001C01D92AA32B207E1F752D0CA
S11301206EC16ECF60910402709105028091060247
S11301309091070208951F920F920FB60F92112407
S11301408F939F93AF93BF93809104029091050284
S1130150A0910602B09107020196A11DB11D8093E2
S1130160040290930502A0930602B0930702109232
S1130170850010928400BF91AF919F918F910F9051
S11301800FBE0F901F90189584B1806884B985B113
S1130190806485B91092850010928400E1E8F0E053
S11301A0808183608083808188608083EFE6F0E0D3
S11301B08081826080831092890088E18093880026
S11301C078940895E1DF60E080E068D060E072EC4C
S11301D081E090E0BFD0A6DF0091000210910102FF
S11301E020910202309103026B017C01C01AD10AF2
S11301F0E20AF30A48EEC41643E0D406E104F1042B
S113020050F3609300027093010280930202909372
S1130210030280910802909109028530910510F43F
S11302205ED01EC08530910599F485B18E7F85B965
S11302300091080210910902055011098AEA55D06B
S1130240F801E45FFD4F808385B1816085B908C002
S11302508C010550110943D0F801E45FFD4F808300
S1130260809108029091090201969093090280936B
S113027008020D9708F4AFCF1092090210920802F9
S113028000E010E007C0F801E45FFD4F80818ED0EC
S11302900F5F1F4F0A301105B4F39DCF962F24B181
S11302A0276024B925B1216025B925B1286025B975
S11302B01CBC2CB5682F70E0AB01440F551F440FD4
S11302C0551F440F551F692F70E0660F771F660F87
S11302D0771F642B622B62656CBD1EBC08951EBC27
S11302E00DB407FEFDCF8EB5089595B19E7F95B9E7
S11302F08EBD0DB407FEFDCF8EB508951F920F92EB
S11303000FB60F9211240BB60F928F939F93EF9316
S1130310FF9380910B02843168F4E82FF0E0909110
S1130320C600EA5EFD4F90838F5F80930B021092AC
S11303300A0205C010920B0281E080930A02FF9129
S1130340EF919F918F910F900BBE0F900FBE0F9066
S11303501F901895CF93DF93C1ECD0E028812861DA
S11303602883E0ECF0E02081226020839B01AC0133
S1130370215031094109510960E874E88EE190E0A7
S11303801CD0BB27A52F942F832F8093C5002093C7
S1130390C400E2ECF0E0808186608083888180681C
S11303A088831092C600DF91CF9108959091C00088
S11303B095FFFCCF8093C6000895A1E21A2EAA1BD4
S11303C0BB1BFD010DC0AA1FBB1FEE1FFF1FA21701
S11303D0B307E407F50720F0A21BB30BE40BF50BFE
S11303E0661F771F881F991F1A9469F76095709587
S11303F0809590959B01AC01BD01CF010895F894BF
S1050400FFCF28
S9030000FC
