:1000000071C000008EC000008CC000008AC00000DB
:1000100088C0000086C0000084C0000082C00000CC
:1000200080C000007EC000007CC000007AC00000DC
:1000300078C0000076C0000074C0000072C00000EC
:1000400070C000006EC000006CC000006AC00000FC
:10005000E5C0000066C0000064C0000062C000008F
:1000600060C000005EC000005CC000005AC000001C
:1000700058C000006AC0000054C0000052C0000018
:1000800050C000004EC000004CC000004AC000003C
:10009000E4C0000046C0000044C0000042C00000B0
:1000A00040C000003EC000003CC000003AC000005C
:1000B00038C0000036C0000034C0000032C000006C
:1000C00030C000002EC000002CC000002AC000007C
:1000D00028C0000026C0000024C0000022C000008C
:1000E00020C0000011241FBECFEFD1E2DEBFCDBF84
:1000F00000E00CBF12E0A0E0B2E0E0E4F9E000E0D4
:100100000BBF02C007900D92A031B107D9F72AE0CA
:10011000A0E1B2E001C01D92A13DB207E1F7F6D027
:100120000DC46ECFECE7F0E0808180628083EAE767
:10013000F0E08081846A8083808188648083EBE73B
:10014000F0E080818660808308951F920F920FB641
:100150000F9211240BB60F922F933F934F935F93FF
:100160006F938F939F93EF93FF9380910B029091E6
:100170000C020596209100023091010228173907E0
:10018000F0F44091170241111AC0A9014F5F5F4F6F
:10019000509301024093000260917900F901E85DFB
:1001A000FD4F60834817590748F181E0809317029B
:1001B00085E090E090930102809300021FC0281711
:1001C0003907E0F4409117024130C1F4A9014F5FB3
:1001D0005F4F509301024093000260917900F90152
:1001E000E258F94F60834817590740F01092170200
:1001F00085E090E09093010280930002FF91EF91DF
:100200009F918F916F915F914F913F912F910F909F
:100210000BBE0F900FBE0F901F9018951F920F925C
:100220000FB60F9211248F939F9380911402909197
:100230001502019690931502809314028091040296
:100240009091050290938500809384009F918F91F7
:100250000F900FBE0F901F9018951F920F920FB620
:100260000F9211240BB60F922F933F938F939F936E
:10027000EF93FF9380911102909112022091CE0092
:10028000FC01E35EFD4F2083019690931202809360
:10029000110220911D02253589F420911E022A3A6F
:1002A00069F42091200230E08217930739F481E04D
:1002B000809316021092120210921102FF91EF9198
:1002C0009F918F913F912F910F900BBE0F900FBE7A
:1002D0000F901F901895DC011092100220E030E082
:1002E0000BC0FD01E20FF31F908140911002942793
:1002F000909310022F5F3F4FAB01425051092417DA
:10030000350778F38091100290E008956AD20ADFF1
:1003100080E190E073D280E190E089D2BCD260911C
:100320001B0270911C0288E292E0D5DF60911B02F3
:1003300070911C028EE796E0CEDF60E080E050D145
:1003400084B1806884B97894E8E2F2E025E52083FE
:100350009AEA918382E08483EEE7F6E0208391833A
:1003600084838091000290910102069740F580916C
:10037000090290910A0290930C0280930B02209143
:1003800002023091030230930502209304029C0183
:10039000295F3F4F30931C0220931B02E8E2F2E0FA
:1003A000328323830596FC01E85DFD4F1082EEE762
:1003B000F6E032832383FC01E258F94F10828091EA
:1003C0001602813009F080C010921602809121023D
:1003D000813021F0823009F44BC076C0EDE1F2E0CB
:1003E000858190E090931A02809319024681242F10
:1003F00030E030937C0620937B060097B1F4809127
:100400007D06811107C02430310508F05DC040939E
:1004100008025AC0813019F44093070255C0823057
:1004200009F052C0409306024FC08130910559F443
:1004300080917D06823020F48F5F80937D0644C0DA
:1004400010927D0641C08230910539F490911302DB
:1004500081E089278093130237C00397A9F5109292
:100460000602109207021092080210927D062CC01C
:10047000EDE1F2E0878190E0982F88272085822B9C
:1004800090930A0280930902258130E0322F2227BF
:100490008681282B30930E0220930D0240E050E01D
:1004A00060E970ED83E090E0FCD131952195310950
:1004B0003093030220930202E0911B02F0911C0290
:1004C000E95DFD4F8081ACD1809117028130D1F47C
:1004D00080911802811116C060911B0270911C025C
:1004E000EB01219788E292E0F6DEC85DDD4F88835C
:1004F00060911B0270911C0288E292E0B1D181E010
:100500008093180280911702811119C080911802FE
:100510008130A9F460911B0270911C02EB012197BC
:100520008EE796E0D8DEC258D94F888360911B02CF
:1005300070911C028EE796E093D1109218022091E0
:100540000D0230910E02ADECBCECC7D196958795AB
:10055000969587959695879520911402309115026E
:100560002817390708F4FDCE1092150210921402D4
:1005700069D06B017C014C01AA24BB24472E582E64
:10058000692E772485E565D18AEA63D180E061D15F
:100590008BE05FD181E05DD180917D065AD1842DC1
:1005A00058D18C2D56D1882D54D180917D06482666
:1005B000C4248C2485EF882680E04BD1882D49D136
:1005C0008091130287958827879585B92091080225
:1005D000409106026091070280911302C1D0C1CE02
:1005E000962F24B1276024B925B1216025B925B102
:1005F000286025B91CBC2CB5682F70E0AB01440FF6
:10060000551F440F551F440F551F692F70E0660F8B
:10061000771F660F771F642B622B61656CBD1EBC54
:1006200008951EBC0DB407FEFDCF8EB508958EBD96
:100630000DB407FEFDCF8EB508958EBD0DB407FE37
:10064000FDCF08950F931F93CF93DF93CDB7DEB700
:100650002A970FB6F894DEBF0FBECDBF00E010E0C2
:100660003BC0043011054CF485B18E7F85B981EA19
:10067000E4DF85B1816085B92DC00430110549F4EE
:1006800085B18E7F85B98AEAD2DF85B1816085B96F
:1006900021C00530110551F485B18E7F85B98AEAF4
:1006A000C6DF8B8385B1816085B914C0C801059709
:1006B000099780F485B18E7F85B9B3DFF80135974E
:1006C00021E030E02C0F3D1FE20FF31F808385B146
:1006D000816085B90F5F1F4F0E3011050CF4C1CF3B
:1006E0009B813C816D814E812F81892F83278627B5
:1006F00084278227588585131AC09A3AE9F43F3F28
:1007000001F5862F90E0A0E0B0E0DC019927882772
:1007100050E0742F6627AB01770F660B770B842BA5
:10072000952BA62BB72BBC01CD01622B0EC060E030
:1007300070E080E097E309C060E070E080E097E35C
:1007400004C060E070E080E097E32A960FB6F8946A
:10075000DEBF0FBECDBFDF91CF911F910F910895E6
:100760000F931F93CF93DF93CDB7DEB728970FB6C4
:10077000F894DEBF0FBECDBF90E8899FF001112431
:10078000E22B9CED99839AEC9A838B836C834D8347
:10079000EE8382278427682786E168276F8318867F
:1007A00000E010E010C085B18E7F85B9E1E0F0E097
:1007B000EC0FFD1FE00FF11F80813FDF85B18160ED
:1007C00085B90F5F1F4F083011056CF328960FB6DF
:1007D000F894DEBF0FBECDBFDF91CF911F910F9177
:1007E000089510928000E1E8F0E0808183608083CA
:1007F000EFE6F0E0808181608083089522E020931D
:10080000C000E1ECF0E0208128612083E2ECF0E020
:100810002081266020839093C5008093C4000895B2
:100820009091C00095FFFCCF8093C600089522E010
:100830002093C800E9ECF0E0208128612083EAECF5
:10084000F0E02081266020839093CD008093CC003F
:1008500008959091C80095FFFCCF8093CE00089535
:10086000EF92FF920F931F93CF93DF937C018B0145
:10087000C0E0D0E006C0F701EC0FFD1F8081E9DF8A
:100880002196C017D107BCF3DF91CF911F910F9133
:10089000FF90EF900895E9ECF0E08081806880831C
:1008A0000895052E97FB16F400940FD057FD05D040
:1008B00023D007FC02D046F408C0509540953095EF
:1008C00021953F4F4F4F5F4F0895909580957095BC
:1008D00061957F4F8F4F9F4F0895A29FB001B39FA7
:1008E000C001A39F700D811D1124911DB29F700D39
:1008F000811D1124911D0895A1E21A2EAA1BBB1B74
:10090000FD010DC0AA1FBB1FEE1FFF1FA217B307DB
:10091000E407F50720F0A21BB30BE40BF50B661FF1
:10092000771F881F991F1A9469F7609570958095B5
:1009300090959B01AC01BD01CF010895F894FFCFC4
:10094000050024F424F402FF0332003200E803001F
:00000001FF
