S011000050726F6A656B7456342E73726563AA
S113000071C000008EC000008CC000008AC00000D7
S113001088C0000086C0000084C0000082C00000C8
S113002080C000007EC000007CC000007AC00000D8
S113003078C0000076C0000074C0000072C00000E8
S113004070C000006EC000006CC000006AC00000F8
S1130050E5C0000066C0000064C0000062C000008B
S113006060C0000014C100005CC000005AC0000061
S113007058C000006AC0000054C0000052C0000014
S113008050C000004EC000004CC000004AC0000038
S113009048C0000046C0000044C0000042C0000048
S11300A040C000003EC000003CC000003AC0000058
S11300B038C0000036C0000034C0000032C0000068
S11300C030C000002EC000002CC000002AC0000078
S11300D028C0000026C0000024C0000022C0000088
S11300E020C0000011241FBECFEFD1E2DEBFCDBF80
S11300F000E00CBF12E0A0E0B2E0E4E4F5E000E0D0
S11301000BBF02C007900D92A630B107D9F729E0C2
S1130110A6E0B2E001C01D92A73FB207E1F70AD101
S11301200FC26ECFECE7F0E0808180668083EAE75F
S1130130F0E08081846A8083808188648083EBE737
S1130140F0E080818660808308951F920F920FB63D
S11301500F9211240BB60F922F933F934F935F93FB
S11301606F938F939F93EF93FF93809102029091EB
S1130170030205962091000230910102A90128177B
S11301803907E8F460910A02611119C04F5F5F4FAB
S1130190509301024093000260917900F901E75EF7
S11301A0FD4F60838417950749F581E080930A0227
S11301B085E090E090930102809300021FC04817ED
S11301C05907E0F440910A024130C1F4A9014F5F9C
S11301D05F4F509301024093000260917900F9014E
S11301E0E85FF94F60838417950741F410920A027F
S11301F085E090E09093010280930002FF91EF91DB
S11302009F918F916F915F914F913F912F910F909B
S11302100BBE0F900FBE0F901F9018951F920F9258
S11302200FB60F9211240BB60F922F933F934F9357
S11302305F936F937F938F939F93AF93BF93EF934A
S1130240FF93209104023091050240E050E064E203
S113025074EF80E090E036D187E494EF821B930B37
S11302609093850080938400FF91EF91BF91AF91AB
S11302709F918F917F916F915F914F913F912F91BA
S11302800F900BBE0F900FBE0F901F9018951F92EA
S11302900F920FB60F9211240BB60F922F933F9328
S11302A04F935F938F939F93EF93FF932091060255
S11302B0309107028091C600F901E25FFD4F80830F
S11302C080910E028535A9F490910F029A3A89F42F
S11302D090911102492F50E02417350751F490935F
S11302E0090281E08093080210920702109206022C
S11302F009C0853519F42B30310521F41092070219
S11303001092060280910602909107020196909342
S1130310070280930602FF91EF919F918F915F9165
S11303204F913F912F910F900BBE0F900FBE0F90E6
S11303301F90189584B1806884B9809102029091CD
S113034003029C01295F3F4F30930D0220930C025E
S1130350E9E1F2E0A5E5A0837AEA7183328323839D
S113036062E06483AC014A5F5F4FFA01E75EFD4FD0
S113037010820596FC01E75EFD4F1082E8E0F6E08E
S1130380A0837183328323836483FA01E85FF94F86
S11303901082FC01E85FF94F108248D0C3DE80E18F
S11303A090E057D089D0789480910A02813071F41A
S11303B080910B0281110AC060910C0270910D02B0
S11303C089E192E05FD081E080930B0280910A0280
S11303D081110DC080910B02813049F460910C02AF
S11303E070910D0288E096E04DD010920B0280913E
S11303F008028130C9F6EEE0F2E0878190E0982FA0
S113040088272085822B90930302809302028581A2
S113041090E0982F88272681822B90930502809361
S1130420040281E628D010920802BECF1092800008
S1130430E1E8F0E0808184608083EFE6F0E0808191
S11304408160808388E59EE9909385008093840091
S1130450089522E02093C000E1ECF0E020812861BF
S11304602083E2ECF0E02081266020839093C50095
S11304708093C40008959091C00095FFFCCF8093B1
S1130480C6000895EF92FF920F931F93CF93DF93CB
S11304908C017B01C0E0D0E005C0F80181918F019F
S11304A0EADF2196CE15DF05C4F3DF91CF911F91CA
S11304B00F91FF90EF900895E1ECF0E08081806867
S11304C080830895052E97FB16F400940FD057FDF2
S11304D005D014D007FC02D046F408C050954095CE
S11304E0309521953F4F4F4F5F4F089590958095DC
S11304F0709561957F4F8F4F9F4F0895A1E21A2EFB
S1130500AA1BBB1BFD010DC0AA1FBB1FEE1FFF1FB3
S1130510A217B307E407F50720F0A21BB30BE40B03
S1130520F50B661F771F881F991F1A9469F760954A
S11305307095809590959B01AC01BD01CF01089504
S1070540F894FFCF59
S10905440500F40110277C
S9030000FC
